:100000000C942A000C9447000C9447000C94470071
:100010000C9447000C9447000C9447000C94470044
:100020000C9447000C9447000C9447000C94490032
:100030000C9447000C9471000C9447000C944700FA
:100040000C9447000C9447000C9447000C94470014
:100050000C94470011241FBECFE5D4E0DEBFCDBF16
:1000600010E0A0E6B0E0E8EFF4E002C005900D92E9
:10007000A438B107D9F710E0A4E8B0E001C01D92A0
:10008000AE38B107E1F70E947C000C947A020C9420
:1000900000001F920F920FB60F9211248F93EF93CF
:1000A000FF93E0918400F0E08CB1EA57FF4F80832A
:1000B000E0918400F0E0EA57FF4F80818A3019F424
:1000C0001092840005C0809184008F5F809384002B
:1000D0007894FF91EF918F910F900FBE0F901F902A
:1000E00018951F920F920FB60F921124F8940F904B
:1000F0000FBE0F901F901895AF92BF92CF92DF92D4
:10010000EF92FF920F931F93DF93CF93CDB7DEB79C
:1001100027970FB6F894DEBF0FBECDBF83E390E004
:100120000E9409020E94F70080E00E945D0181E0C8
:1001300060E00E94350185E060E00E94F40180E605
:1001400090E00E94880104EC19E0C8010197F1F7E2
:1001500081E060E00E94350180E060E00E94F401EF
:1001600088E690E00E948801C8010197F1F781E0DC
:1001700060E00E94350178949AE0E92E6E010894BF
:10018000C11CD11C89E1A82EB12C81E060E00E9445
:10019000350100918B00F0908C0080E060E00E94BF
:1001A000F40180EFF80E0E9D80011124F00E8F2DCA
:1001B00090E063E070E00E9496018EE790E00E947C
:1001C00018028F2D90E0B6014AE050E00E944902EB
:1001D000C6010E9418028AE090E00E94140288E89A
:1001E00093E1F5013197F1F70197D9F7CECF80E48C
:1001F00087B987E886B9089597B1987F97B997B17D
:100200008770892B87B9369A349BFECF349A24B1F4
:1002100035B1C901089584B3807F84BB959A9698BF
:1002200081E08A95F1F721E0979A822F8A95F1F77C
:1002300083B38295807F922F9A95F1F79798922FAA
:100240009A95F1F7979A922F9A95F1F793B3922F87
:100250009A95F1F79798922F9A95F1F787FDE4CF49
:10026000959884B38F6084BB0895382F662311F46A
:10027000969801C0969A21E0822F8A95F1F7979A75
:1002800085B3932F92959F70807F982B95BB822F7B
:100290008A95F1F79798822F8A95F1F7979A85B307
:1002A0003F70807F832B85BB822F8A95F1F79798CB
:1002B0002A95F1F70E940B0108951F93182F8BE3E5
:1002C0009BE20197F1F784B38F6084BB8F9A8E9A7B
:1002D0008D9A85B3807F85BB97989598969881E095
:1002E000982F9A95F1F7979AA99A982F9A95F1F7DE
:1002F00097988A95F1F70E940B01812F8C6060E03E
:100300000E94350188E260E00E9435011F91089546
:10031000CF93DF93EC0104C061E00E943501219688
:1003200088818823C9F7DF91CF910895EF92FF92DA
:100330000F931F93DF93CF9300D000D00F92CDB7D0
:10034000DEB79C018B01FE01319685E0DF011D9235
:100350008A95E9F7FE0135960DC0C9016AE070E0A3
:100360000E9422028083C9016AE070E00E9422029A
:100370009B0131972115310581F7BFEF0F3F1B0717
:1003800079F420E030E0AE014F5F5F4F02C02F5F95
:100390003F4FFA01E20FF31F80818823C1F304C0AD
:1003A00025E030E0201B310B7E010894E11CF11C9C
:1003B000E20EF31E890109C0F70181917F01805D82
:1003C00061E00E9435010F5F1F4F05301105A4F356
:1003D0000F900F900F900F900F90CF91DF911F9182
:1003E0000F91FF90EF900895843190F4662311F4FB
:1003F00080680BC0613011F4806C07C0623011F46A
:10040000846903C0633009F4846D60E00E943501A3
:10041000089589B990BD86E880BD88ED8AB90895B0
:100420005F9BFECF8CB108955D9BFECF8CB9089584
:10043000FC0104C05D9BFECF8CB93196808188237E
:10044000C9F7089597FB092E07260AD077FD04D037
:100450000CD006D000201AF4709561957F4F089556
:10046000F6F7909581959F4F0895AA1BBB1B51E10C
:1004700007C0AA1FBB1FA617B70710F0A61BB70B14
:10048000881F991F5A95A9F780959095BC01CD01B9
:100490000895FB019F01E8944230C4F04532B4F462
:1004A0004A3029F497FB1EF4909581959F4F642F55
:1004B00077270E943502805D8A330CF0895D819335
:1004C000CB010097A1F716F45DE251931082C901A8
:1004D0000C946A02DC01FC01672F71917723E1F72C
:1004E000329704C07C916D9370836291AE17BF0701
:0804F000C8F30895F894FFCF52
:1004F80057656C636F6D650048656174657220436C
:100508006F6E74726F6C2053797374656D00465307
:0405180052313A0022
:00000001FF
